:020000040800F2
:10000000600B00207D0B0008AD020008AF02000865
:10001000B3020008B7020008BB020008000000009D
:10002000000000000000000000000000BF02000807
:10003000C102000800000000C3020008C502000859
:10004000970B0008970B0008970B0008970B000808
:10005000970B0008970B0008970B0008970B0008F8
:10006000970B0008970B0008970B0008970B0008E8
:10007000970B0008970B0008970B0008970B0008D8
:10008000970B0008970B0008970B0008970B0008C8
:10009000970B0008970B0008970B0008970B0008B8
:1000A000970B0008970B0008970B0008970B0008A8
:1000B000970B0008970B0008970B0008970B000898
:1000C000970B0008970B0008970B0008970B000888
:1000D000970B0008F30A0008970B0008970B00081D
:1000E000970B0008970B0008970B0008970B000868
:1000F000970B0008970B0008970B0008970B000858
:10010000970B0008970B0008970B0008970B000847
:10011000970B0008970B0008970B0008970B000837
:10012000970B0008970B0008970B0008970B000827
:1001300000F002F800F03AF80AA090E8000C8244BF
:100140008344AAF10107DA4501D100F02FF8AFF29C
:10015000090EBAE80F0013F0010F18BFFB1A43F0A5
:10016000010318470421000024210000103A24BF95
:1001700078C878C1FAD8520724BF30C830C144BF0C
:1001800004680C607047000000230024002500264E
:10019000103A28BF78C1FBD8520728BF30C148BFEA
:1001A0000B6070471FB51FBD10B510BD01F0FBFA05
:1001B0001146FFF7F7FF00F009F801F019FB03B44F
:1001C000FFF7F2FF03BC00F037FC000008B5002485
:1001D00000F0C4FB00F02AFC4FF4165000F03AFC8B
:1001E00000F060F900F00FFB20A20021084600F0AB
:1001F000E8FA21A21821002000F0E3FA22A2282127
:10020000002000F0DEFA24A23421002000F0D9FA08
:1002100023A23421402000F0D4FA00F08BF92024EE
:1002200022E001200C23224634210090242000F0FB
:1002300024FA0C2003232246342100905E2000F093
:1002400076FA00F077F9601CC4B27E2C00DD202421
:100250004FF4FA7000F0BEFB1348006808B90120A3
:1002600000E0002010490860DBE70000414C4945F0
:100270004E54454B00000000302E393627204F4C9D
:10028000454420544553540041544F4D20323031A1
:10029000342F332F3700000041534349493A0000BF
:1002A000434F44453A000000A0012142704700BF7F
:1002B000FEE700BFFEE700BFFEE700BFFEE77047B6
:1002C00070477047704700000CB500200190009007
:1002D0006B48006840F480306949086000BF684896
:1002E000006800F4003000900198401C01900098D4
:1002F00018B90198B0F5A06FF1D16148006810F409
:10030000003F02D00120009001E000200090009802
:10031000012842D15B48006840F01000594908604C
:100320000846006820F0030008600846006840F0B6
:1003300002000860524840685149486008464068D9
:1003400048600846406840F480604860084640685D
:1003500020F47C1048600846406840F4E81048608B
:100360000846006840F08070086000BF444800689C
:1003700010F0007FFAD04248406820F00300404966
:1003800048600846406840F00200486000BF3C48B2
:10039000406800F00C000828F9D10CBD10B5FFF73B
:1003A00093FF10BD10B53648006840F00100344995
:1003B00008600846406834490840314948600846AA
:1003C0000068324908402E4908600846006820F459
:1003D000802008600846406820F4FE0048604FF422
:1003E0001F008860FFF7DAFF4FF0006028490860BF
:1003F00010BD10B5002100200022214B5B6803F0E6
:100400000C0121B1042906D0082928D107E0214B8D
:10041000214C236027E01F4B1F4C236023E0184B27
:100420005B6803F47010164B5B6803F480320223A0
:1004300003EB904022B9194B4343174C23600DE066
:100440000F4B5B6813F4003F04D0144B4343124C32
:10045000236003E00F4B43430F4C236003E00D4B3D
:100460000D4C236000BF00BF054B5B68C3F3031353
:100470000B4CE15C084B1B68CB40074C236010BD64
:1004800000100240002002400000FFF8FFFFF6FECF
:1004900008ED00E000127A000000002000093D0095
:1004A0000400002008B50121242000F09DFE4FF437
:1004B0008070ADF8000010208DF8030003208DF847
:1004C00002006946094800F0D9FB4FF480710748E3
:1004D00000F07FFC0420ADF800006946044800F0FD
:1004E000CDFB0421024800F074FC08BD0008014067
:1004F0000014014070B504460D46FE4800F065FC4E
:1005000000F47F4040EA04063146FA4800F06AFCF5
:10051000F94805604FF00000F849C1F8A401F84916
:1005200008604FF001000860F6490860F349C1F81F
:10053000A00170BD70B500241CE004F1B001C8B288
:100540000021FFF7D7FF00210846FFF7D3FF002166
:100550001020FFF7CFFF002508E0EB4901EBC501B4
:10056000085D0121FFF7C6FF681CC5B2802DF4DBD2
:10057000601CC4B2082CE0DB70BD10B500218D20DA
:10058000FFF7B8FF00211420FFF7B4FF0021AF20D0
:10059000FFF7B0FF10BD10B500218D20FFF7AAFFB7
:1005A00000211020FFF7A6FF0021AE20FFF7A2FFD9
:1005B00010BD70B500240CE0002506E00020D249F3
:1005C00001EBC5010855681CC5B2802DF6DB601C27
:1005D000C4B2082CF0DBFFF7ADFF70BDF0B51446D8
:1005E00000267F2801DC3F2900DDF0BD0B46CF1738
:1005F00001EB5777FF10C7F10707FAB2CF1701EBEE
:100600005777FF10A1EBC707FDB2C5F1070701231C
:10061000BB40DEB24CB1BC4B03EBC0039B5C33432D
:10062000B94F07EBC007BB5408E0B74B03EBC0035F
:100630009B5CB343B44F07EBC007BB5400BFD4E788
:100640002DE9F04706460F4690469946DDF820A072
:1006500034460CE03D4606E0524629462046FFF768
:10066000BDFF681CC5B24D45F6DD601CC4B24445F3
:10067000F0DDFFF75FFFBDE8F0872DE9F04F804622
:100680000C4615461E46A346A5F12000C5B200271C
:100690003EE00C2E07D105EB45009C4901EB8000A4
:1006A00010F8079004E09A4800EB051010F8079046
:1006B0004FF0000A26E019F0800F05D02146404691
:1006C000099AFFF78BFF09E0099808B9012000E0BB
:1006D0000020024621464046FFF780FF4FEA49606E
:1006E0004FEA1069601CC4B2A4EB0B00B04205D104
:1006F0005C4608F1010000F0FF0806E00AF1010085
:1007000000F0FF0ABAF1080FD5DB00BF781CC7B2B2
:10071000B742BEDBBDE8F08F10B50246012000E015
:1007200050430B00A1F10104E1B2F9D110BD2DE954
:10073000FF4F81B0074691461E460E9D4FF0000ABE
:10074000002439E0301B401EC1B20A20FFF7E4FF4D
:10075000B9FBF0F00A21B0FBF1F201FB1208BAF18B
:10076000000F16D1701EA04213DDB8F1000F0ED19C
:100770000120AB4605EBDB71491001FB04710090D1
:10078000C8B22B4620220299FFF777FF12E04FF004
:10079000010A0120AB4605EBDB71491001FB047136
:1007A0000090C8B208F13001CAB22B460299FFF797
:1007B00064FF00BF601CC4B2B442C3DB05B0BDE837
:1007C000F08FF8B505460E46144618E07A2D03DD85
:1007D000002506F11000C6B23A2E04DD00200546C1
:1007E0000646FFF7E6FE01200090227810233146EE
:1007F0002846FFF742FF05F10800C5B2641C2078C7
:100800000028E3D1F8BD08B50121182000F0ECFC68
:100810000121404800F001FBFF20ADF8000010204E
:100820008DF8030003208DF802006946314800F07E
:1008300025FA4FF6FF712F4800F0D4FA4FF470708C
:10084000ADF8000010208DF8030003208DF80200A1
:100850006946314800F012FA4FF470712E4800F0EA
:10086000B8FA0021AE20FFF745FE0021D520FFF7A2
:1008700041FE00215020FFF73DFE0021A820FFF798
:1008800039FE00213F20FFF735FE0021D320FFF77E
:1008900031FE00210846FFF72DFE00214020FFF722
:1008A00029FE00218D20FFF725FE00211420FFF7EF
:1008B00021FE00212020FFF71DFE00210220FFF76E
:1008C00019FE0021A120FFF715FE0021C020FFF72F
:1008D00011FE0021DA20FFF70DFE00211220FFF7A4
:1008E00009FE00218120FFF705FE0021EF20FFF720
:1008F00001FE13E0000C0140A00122420000224250
:100900009C012242A4012242340000200418000865
:10091000781C000800023000001001400021D9209E
:10092000FFF7E8FD0021F120FFF7E4FD0021DB20C7
:10093000FFF7E0FD00213020FFF7DCFD0021A420BF
:10094000FFF7D8FD0021A620FFF7D4FD0021AF203E
:10095000FFF7D0FDFFF72DFE08BD000010B56FF0CA
:10096000040000F0FDFE2D4800682D49B0FBF1F0B9
:100970002C4908700846007800EB4001C1EBC0101C
:100980004FF6FF7101EAC0002749088010BD0146FB
:10099000244A12784A434FF0E0235A6100229A61B8
:1009A0001A46126942F001021A6100BF4FF0E022BC
:1009B000106910F0010F02D010F4803FF6D04FF014
:1009C000E022126922F001024FF0E0231A610022B6
:1009D0009A6170470146144A12884A434FF0E02357
:1009E0005A6100229A611A46126942F001021A61A4
:1009F00000BF4FF0E022106910F0010F02D010F498
:100A0000803FF6D04FF0E022126922F001024FF051
:100A1000E0231A6100229A61704700000000002064
:100A200000127A00140000201600002010B54FF4C8
:100A3000A06000F045FE10BD014600BF704700BF3A
:100A40004A4A128812F0400FFAD0C2B2474B1B1D1F
:100A50001A80704710B586B00446012144F20400A4
:100A600000F0C2FB414800F027FC4FF40070ADF8E5
:100A7000140003208DF8160018208DF8170005A922
:100A80003B4800F0FBF84FF48060ADF81400042000
:100A90008DF8170005A9364800F0F0F825208DF8EC
:100AA000000003208DF801008DF8020001208DF870
:100AB0000300684600F009FE01940020ADF808002C
:100AC000ADF80A00ADF80C00ADF810000C20ADF840
:100AD0000E0001A9254800F032FC012240F2255108
:100AE000224800F0C4FC0121204800F0B4FC06B00C
:100AF00010BD10B540F225511C4800F09DFD10B30B
:100B00001A4800F019FDC4B21A48008810F4004FCA
:100B10002BD11848008810F4804F0CD00A2C03D039
:100B200000201449088020E01248008840F400406A
:100B30001049088019E00D2C06D10E48008840F4B9
:100B400080400C49088010E00A480088C0F30D007E
:100B500009490C5407480088401C0649088008468B
:100B60000088C72801DD0020088010BD0038014042
:100B70000008014018000020340400200948804784
:100B800009480047FEE7FEE7FEE7FEE7FEE7FEE76F
:100B9000FEE7FEE7FEE7FEE704480549054A064B87
:100BA00070470000A503000831010008600500201F
:100BB000600B0020600700206007002010B504468D
:100BC000CA48844208D10121042000F027FB0021FB
:100BD000042000F023FB46E0C548844208D10121EF
:100BE000082000F01BFB0021082000F017FB3AE072
:100BF000C048844208D10121102000F00FFB0021E1
:100C0000102000F00BFB2EE0BB48844208D10121EC
:100C1000202000F003FB0021202000F0FFFA22E05A
:100C2000B648844208D10121402000F0F7FA0021A3
:100C3000402000F0F3FA16E0B148844208D10121C7
:100C4000802000F0EBFA0021802000F0E7FA0AE0B3
:100C5000AC48844207D10121801500F0DFFA002161
:100C6000A01500F0DBFA10BD10B50121084600F018
:100C7000D5FA0021012000F0D1FA10BD2DE9F04194
:100C8000024600250026002000230024002791F8BA
:100C900003C00CF00F0591F803C01CF0100F03D037
:100CA00091F802C04CEA050591F800C0BCF1000FB4
:100CB00031D0146800202BE04FF0010C0CFA00F347
:100CC000B1F800C00CEA03069E4220D183004FF029
:100CD0000F0C0CFA03F7BC4305FA03FC4CEA0404BE
:100CE00091F803C0BCF1280F06D14FF0010C0CFAAB
:100CF00000FCC2F814C00AE091F803C0BCF1480F30
:100D000005D14FF0010C0CFA00FCC2F810C0401CD9
:100D10000828D1D31460B1F800C0BCF1FF0F34DD56
:100D2000546800202EE000F1080C4FF0010808FA8A
:100D30000CF3B1F800C00CEA03069E4221D18300F7
:100D40004FF00F0C0CFA03F7BC4305FA03FC4CEA16
:100D5000040491F803C0BCF1280F05D100F1080C80
:100D600008FA0CF8C2F8148091F803C0BCF1480FDF
:100D700007D100F1080C4FF0010808FA0CF8C2F88E
:100D80001080401C0828CED35460BDE8F0814FF697
:100D9000FF710180022181700421C17070470246F9
:100DA000002093680B4201D0012000E00020704732
:100DB0000146886880B2704702460020D3680B4223
:100DC00001D0012000E0002070470146C86880B2D1
:100DD000704701617047416170470AB1016100E0ED
:100DE00041617047C16070474FF480320A438261AD
:100DF0008161826182698269704702460020424BAC
:100E000018684FF68073184040EA021008433E4BC2
:100E1000186070473D49C8617047F0B50A46002325
:100E200000240021002500F00046B6F1004F02D159
:100E3000354EF16901E0344E7168C0F3034583B269
:100E400000F44016B6F5401F08D121F070612E4E17
:100E5000766826F070662C4F7E6012E000F48016F3
:100E6000B6F5801F06D1032606FA05F4A14341F02A
:100E7000706106E0460D360103FA06F6B14341F013
:100E8000706122B1460D360103FA06F6314300F0D7
:100E90000046B6F1004F02D11B4EF16101E01A4E3F
:100EA0007160F0BD30B500228B071C0F0F2303FAD1
:100EB00004F2154B08338C1053F824309343124C32
:100EC00008348D1044F8253023468C1053F8243014
:100ED0008C07240F00FA04F423430B4C08348D10C4
:100EE00044F8253030BD0A490860704700080140C9
:100EF000000C0140001001400014014000180140A6
:100F0000001C014000200140000001400000204280
:100F1000DC002042DD48006840F00100DB49086049
:100F200008464068DA490840D849486008460068E1
:100F3000D8490840D54908600846006820F4802058
:100F400008600846406820F4FE0048604FF41F0027
:100F500088607047CD49096821F48031CB4A11601F
:100F60001146096821F480211160B0F5803F03D05B
:100F7000B0F5802F0ED106E0C449096841F48031F4
:100F8000C24A116007E0C149096841F4A021BF4A83
:100F9000116000E000BF00BF704710B5014600229D
:100FA000002300204A11012A02D1B84C236806E030
:100FB000022A02D1B54C236A01E0B44C636A01F005
:100FC0001F02012494401C4201D0012000E00020B7
:100FD00010BD38B5002000900024002500BF31204E
:100FE000FFF7DBFF05460098401C00900098B0F525
:100FF000A06F01D0002DF2D03120FFF7CEFF08B155
:10100000012400E00024204638BD014600209F4A0C
:10101000106820F0F80040EAC100106070479E4957
:101020000860704702460020984B586820F47C10F6
:1010300042EA01031843954B586070479649086689
:10104000704701460020914A506820F00300084391
:10105000506070478D48406800F00C0070470146B2
:1010600000208A4A506820F0F00008435060704722
:1010700001460020854A506820F4E0600843506033
:10108000704701460020814A506820F4605040EAD1
:10109000C1005060704729B17C4A527A02437B4BB1
:1010A0005A7204E0794A527A8243784B5A727047F6
:1010B0007A490860704701460020744A506820F45D
:1010C00040400843506070470021754A11706F4AD4
:1010D00082F82010012802D0042808D103E0012161
:1010E0006F4A117004E005216D4A117000E000BFE5
:1010F00000BF70476B49086070476449096A014343
:10110000624A11627047674944390860704730B5D8
:1011100000210022002400235C4D6D6805F00C01C5
:1011200021B1042905D0082923D105E05E4D0560D1
:1011300022E05D4D05601FE0544D6D6805F47012AE
:10114000524D6D6805F48034022505EB92421CB9BE
:10115000564D554305600BE04C4D6D6815F4003F4E
:1011600003D0524D5543056002E04F4D5543056095
:1011700002E04D4D056000BF00BF444D6D6805F0B5
:10118000F00109094A4D6B5C0568DD4045603F4D43
:101190006D6805F4E061090A454D6B5C4568DD400A
:1011A00085603A4D6D6805F46051C90A404D6B5C2D
:1011B0004568DD40C560354D6D6805F44041890BDB
:1011C0003C4D6B5CC568B5FBF3F5056130BD29B1DD
:1011D0002E4A526902432D4B5A6104E02B4A526950
:1011E00082432A4B5A61704729B1284A92690243C7
:1011F000264B9A6104E0254A92698243234B9A6107
:10120000704729B1214AD2690243204BDA6104E0D8
:101210001E4AD26982431D4BDA61704729B11B4ACD
:10122000D2680243194BDA6004E0184AD26882435C
:10123000164BDA60704729B1144A12690243134B06
:101240001A6104E0114A12698243104B1A61704717
:1012500014494039086070470F49C86470470B490A
:10126000C87170470948406A40F080700749486279
:10127000704701460020054A92680A4201D00120C9
:1012800000E000207047014988727047001002405A
:101290000000FFF8FFFFF6FE00004242D800424285
:1012A000201002408004424200127A0000093D00F2
:1012B000200000203000002010B50446FB48844286
:1012C00009D101218803FFF7A9FF00214FF48040D5
:1012D000FFF7A4FF32E0F648844209D10121480417
:1012E000FFF7A9FF00214FF40030FFF7A4FF25E02E
:1012F000F048844209D101218804FFF79CFF0021B6
:101300004FF48020FFF797FF18E0EB48844209D1A3
:101310000121C804FFF78FFF00214FF40020FFF7E1
:101320008AFF0BE0E548844208D101210805FFF758
:1013300082FF00214FF48010FFF77DFF10BD2DE9E3
:10134000F04786B005460E460024A24600BFA146DF
:101350000027B08900B100BF2F462C8A4CF6FF70E1
:101360000440F08804432C82AC894EF6F31004400C
:10137000B08831890843718908430443AC81AC8A41
:101380004FF6FF400440B0890443AC8201A8FFF748
:10139000BEFEC648874202D1DDF810A001E0DDF8AC
:1013A0000CA0A88910F4004F08D00AEBCA0000EB8B
:1013B0000A1031684900B0FBF1F807E00AEBCA00F7
:1013C00000EB0A1031688900B0FBF1F86420B8FB2B
:1013D000F0F004012009642101FB1089A88910F4B0
:1013E000004F08D0322000EBC900B0FBF1F000F054
:1013F0000700044308E0322000EB09106421B0FB31
:10140000F1F000F00F0004432C8106B0BDE8F08736
:101410004FF41651016000218180C18001810C21AF
:10142000418100218181704710B502460020108A59
:101430004FF2FF0318400B884C8823438C882343CA
:10144000CC8823431843108210BD002101804180C5
:101450008180C180704721B1828942F4005282812B
:1014600004E082894DF6FF731A4082817047F0B51F
:1014700003460024002600250020A1F510676A3FDE
:1014800000D100BF1846C1F3421401F01F06012726
:1014900007FA06F5012C01D10C3004E0022C01D131
:1014A000103000E014301AB107682F43076002E0E3
:1014B0000768AF430760F0BD1AB1838A0B4383828C
:1014C00002E0838A8B4383827047028A4FF6F0736F
:1014D0001A400282028A0A430282704782894FF2CE
:1014E000FF731A40828182890A438281704721B149
:1014F000828942F00202828104E082894FF6FD7304
:101500001A4082817047028A4FF6DF731A400282C6
:10151000028A0A430282704721B1028A42F4804261
:10152000028204E0028A4BF6FF731A40028270477F
:10153000C1F308028280704701468888C0F3080022
:101540007047818941F0010181817047028BD2B2DD
:101550000283028B42EA012202837047028B02F46B
:101560007F420283028B0A430283704721B1828A41
:1015700042F02002828204E0828A4FF6DF731A4032
:101580008282704721B1828A42F01002828204E096
:10159000828A4FF6EF731A408282704721B1828AA5
:1015A00042F00802828204E0828A4FF6F7731A4002
:1015B0008282704721B1828942F40042828103E035
:1015C0008289C2F30E028281704721B1828A42F47D
:1015D0000062828204E0828A4FF2FF731A408282A4
:1015E0007047828A4FF6FB731A408282828A0A43CE
:1015F0008282704721B1828A42F00202828204E034
:10160000828A4FF6FD731A4082827047024600209C
:10161000B1F5007F00D100BF13880B4201D001203B
:1016200000E00020704701F40072B2F5007F00D1A5
:1016300000BFCA430280704770B5024600240023F1
:1016400000250020A1F510666A3E00D100BFC1F35D
:10165000421501F01F03012606FA03F3012D02D102
:101660009689334006E0022D02D1168A334001E00C
:10167000968A33400C12012606FA04F41688344088
:1016800013B10CB1012000E0002070BD10B50022A4
:101690000023A1F510646A3C00D100BF0A120124A6
:1016A0009440A3B2DC43048010BD00000038014028
:1016B0000044004000480040004C00400050004002
:1016C00031490143314A1160704770B50021002350
:1016D0000F22C4780CB32D4C246804F4E064C4F5E4
:1016E000E064210AC1F10403CA40447804FA03F11A
:1016F0008478144021430901254C0678A1550478CB
:1017000004F01F050124AC4005786D114FF0E02670
:1017100006EB8505C5F8004109E0047804F01F05D3
:101720000124AC401B4D0678761145F8264070BD6B
:10173000194A0A400243154B1B1F1A60704739B102
:10174000124A121D12680243104B1B1D1A6006E05C
:101750000E4A121D126882430C4B1B1D1A60704703
:10176000042808D14FF0E021096941F004014FF04D
:10177000E022116107E04FF0E021096921F0040146
:101780004FF0E022116170470000FA050CED00E017
:1017900000E400E080E100E080FFFF1F7047704739
:1017A000704770477047754600F028F8AE46050050
:1017B0006946534620F00700854618B020B5FFF76C
:1017C000EBF9BDE820404FF000064FF000074FF066
:1017D00000084FF0000B21F00701AC46ACE8C0094F
:1017E000ACE8C009ACE8C009ACE8C0098D46704758
:1017F0000446AFF300802046FEF7E1FC0048704746
:10180000FC040020000000000000000000000000B8
:10181000000000003F400000000000000000300019
:10182000400030004000000009000BC03D000BC02C
:101830003D00090018C024407FE0224031800000B4
:10184000180024C01B000D803240018003801C4022
:1018500027401C800740004010006000000000008E
:10186000000000000000000000001F802040402019
:101870000000402020401F800000000009000600FA
:101880001F80060009000000040004003F800400DF
:1018900004000000001000600000000000000000D4
:1018A00004000400040004000400000000000040E4
:1018B0000000000000000000002001C00600380009
:1018C000400000001F802040204020401F8000007A
:1018D000000010403FC000400000000018C0214040
:1018E0002240244018400000108020402440244022
:1018F0001B80000002000D0011003FC001400000ED
:101900003C80244024402440238000001F80244049
:1019100024403440038000003000200027C03800FD
:10192000200000001B802440244024401B80000035
:101930001C0022C0224022401F8000000000000046
:1019400008400000000000000000000004600000EB
:1019500000000000000004000A0011002080404048
:1019600009000900090009000900000000004040CA
:10197000208011000A0004001800200023402400E9
:10198000180000001F802040274029401F40000011
:10199000004007C039000F0001C0004020403FC098
:1019A000244024401B8000001F8020402040204015
:1019B0003080000020403FC0204020401F800000B9
:1019C00020403FC024402E4030C0000020403FC097
:1019D00024402E00300000000F00108020402240E4
:1019E0003380020020403FC0040004003FC020407C
:1019F000204020403FC020402040000000602020C8
:101A000020203FC02000200020403FC024400B0089
:101A100030C0204020403FC020400040004000C077
:101A20003FC03C0003C03C003FC0000020403FC01E
:101A30000C4023003FC020001F8020402040204059
:101A40001F80000020403FC02440240018000000F8
:101A50001F802140214020E01FA0000020403FC007
:101A60002440260019C0004018C0244024402240D1
:101A700031800000300020403FC020403000000096
:101A800020003F80004000403F80200020003E00BA
:101A900001C0070038002000380007C03C0007C024
:101AA00038000000204039C0060039C02040000046
:101AB0002000384007C0384020000000304021C0DE
:101AC0002640384020C00000000000007FE0402099
:101AD00040200000000070000C0003800040000067
:101AE0000000402040207FE00000000000002000B7
:101AF0004000200000000000001000100010001046
:101B00000010001000000000400000000000000075
:101B1000000002800540054003C0004020003FC097
:101B2000044004400380000000000380044004409F
:101B30000640000000000380044024403FC00040F5
:101B40000000038005400540034000000000044001
:101B50001FC0244024402000000002E00550055032
:101B60000650042020403FC00440040003C0004051
:101B70000000044027C000400000000000100010DA
:101B8000041027E00000000020403FC00140070093
:101B900004C00440204020403FC0004000400000FE
:101BA00007C0040007C0040003C00000044007C0D1
:101BB0000440040003C000400000038004400440CF
:101BC00003800000041007F004500440038000006C
:101BD000000003800440045007F00010044007C0D8
:101BE00002400400040000000000064005400540DB
:101BF00004C00000000004001F80044000400000FA
:101C0000040007800040044007C0004004000700B3
:101C100004C0018006000400060001C0070001C0E6
:101C200006000000044006C0010006C00440000099
:101C30000410071004E001800600040000000440C6
:101C400005C00640044000000000000004007BE0E6
:101C500040200000000000000000FFF00000000035
:101C6000000040207BE004000000000040008000F5
:101C700040002000200040000000000000000000A4
:101C800000000000000000000000000000001FCC69
:101C9000000C0000000000000000080030006000A0
:101CA0000800300060000000022003FC1E2002201B
:101CB00003FC1E200220000000000E1811043FFF4C
:101CC00010840C78000000000F0010840F3800C052
:101CD000077818840078000000780F8410C411245D
:101CE0000E9800E4008400080800680070000000FE
:101CF000000000000000000000000000000007E0FD
:101D000018182004400200000000400220041818A7
:101D100007E00000000000000240024001800FF0D8
:101D200001800240024000000080008000800FF827
:101D300000800080008000000001000D000E000007
:101D40000000000000000000000000800080008013
:101D500000800080008000800000000C000C00006B
:101D600000000000000000000000000600180060F5
:101D70000180060018002000000007F00808100489
:101D80001004080807F000000000080408041FFC05
:101D9000000400040000000000000E0C10141024C9
:101DA000104411840E0C000000000C1810041104E3
:101DB000110412880C700000000000E003200424CD
:101DC00008241FFC0024000000001F981084110448
:101DD0001104108810700000000007F0088811043A
:101DE000110418880070000000001C00100010FC96
:101DF00013001C001000000000000E381144108475
:101E0000108411440E38000000000700088C1044B4
:101E10001044088807F00000000000000000030CD8
:101E2000030C00000000000000000000000101069B
:101E300000000000000000000000008001400220BF
:101E400004100808100400000220022002200220D2
:101E500002200220022000000000100408080410E4
:101E6000022001400080000000000E001200100C53
:101E7000106C10800F00000003E00C1813E4142411
:101E800017C4082807D000000004003C03C41C400D
:101E9000074000E4001C000410041FFC110411049E
:101EA00011040E880070000003E00C1810041004E8
:101EB000100410081C10000010041FFC1004100473
:101EC0001004080807F0000010041FFC110411049E
:101ED00017C410040818000010041FFC110411009E
:101EE00017C010000800000003E00C1810041004D4
:101EF00010441C780040000010041FFC1084008077
:101F0000008010841FFC10040000100410041FFC4B
:101F10001004100400000000000300011001100173
:101F20001FFE10001000000010041FFC11040380AD
:101F30001464181C1004000010041FFC100400049A
:101F400000040004000C000010041FFC1F0000FC33
:101F50001F001FFC1004000010041FFC0C040300F1
:101F600000E010181FFC100007F00808100410040F
:101F70001004080807F0000010041FFC10841080F3
:101F8000108010800F00000007F0081810241024A3
:101F9000101C080A07F2000010041FFC11041100B5
:101FA00011C011300E0C000400000E1C110410842E
:101FB000108410441C3800001800100010041FFC8E
:101FC000100410001800000010001FF81004000496
:101FD000000410041FF8100010001E0011E0001C87
:101FE000007013801C0010001FC0103C00E01F0098
:101FF00000E0103C1FC000001004180C163401C093
:1020000001C01634180C100410001C00130400FC4E
:1020100013041C00100000000804101C106410843D
:1020200013041C04101800000000000000007FFED4
:102030004002400240020000000030000C0003801B
:102040000060001C0003000000004002400240024B
:102050007FFE0000000000000000000020004000A3
:1020600040004000200000000001000100010001CC
:1020700000010001000100010000400040002000BC
:10208000000000000000000000000098012401444E
:102090000144014400FC000410001FFC00880104FE
:1020A0000104008800700000000000700088010436
:1020B0000104010400880000000000700088010491
:1020C000010411081FFC0004000000F80144014451
:1020D0000144014400C800000000010401040FFC99
:1020E0001104110411001800000000D60129012973
:1020F000012901C90106000010041FFC0084010031
:102100000100010400FC000400000104190419FC92
:1021100000040004000000000000000300010101B1
:10212000190119FE0000000010041FFC00240040EB
:1021300001B4010C010400000000100410041FFC95
:102140000004000400000000010401FC010401007F
:1021500001FC0104010000FC010401FC00840100F9
:102160000100010400FC0004000000F80104010467
:102170000104010400F80000010101FF00850104D1
:102180000104008800700000000000700088010455
:102190000104010501FF00010104010401FC0084A8
:1021A0000104010001800000000000CC0124012492
:1021B000012401240198000000000100010007F83B
:1021C0000104010400000000010001F80004000403
:1021D0000004010801FC0004010001800170000CF2
:1021E000001001600180010001F0010C003001C00D
:1021F0000030010C01F0010000000104018C0074AA
:102200000170018C01040000010101810171000EC7
:10221000001801600180010000000184010C0134FC
:1022200001440184010C00000000000000000000D7
:1022300001003EFC400240020000000000000000DF
:10224000FFFF0000000000000000400240023EFCD2
:10225000010000000000000000006000800080001D
:1022600040004000200020008822000800000020DC
:10227000340000006C010008BC220008340000207B
:102280002C0B00008801000800A24A040000000096
:102290000000000001020304060708090000000016
:1022A0000000000000000000000000000102030424
:0C22B000010203040607080902040608E6
:0400000508000131BD
:00000001FF
